{
  "contractName": "NFTMarket",
  "abi": [
    {
      "inputs": [],
      "stateMutability": "nonpayable",
      "type": "constructor"
    },
    {
      "anonymous": false,
      "inputs": [
        {
          "indexed": true,
          "internalType": "uint256",
          "name": "itemId",
          "type": "uint256"
        },
        {
          "indexed": true,
          "internalType": "address",
          "name": "nftContract",
          "type": "address"
        },
        {
          "indexed": true,
          "internalType": "uint256",
          "name": "tokenId",
          "type": "uint256"
        },
        {
          "indexed": false,
          "internalType": "address",
          "name": "seller",
          "type": "address"
        },
        {
          "indexed": false,
          "internalType": "address",
          "name": "owner",
          "type": "address"
        },
        {
          "indexed": false,
          "internalType": "uint256",
          "name": "price",
          "type": "uint256"
        }
      ],
      "name": "MarketItemcreated",
      "type": "event"
    },
    {
      "inputs": [
        {
          "internalType": "uint256",
          "name": "_price",
          "type": "uint256"
        }
      ],
      "name": "changeListingPrice",
      "outputs": [],
      "stateMutability": "nonpayable",
      "type": "function"
    },
    {
      "inputs": [
        {
          "internalType": "address",
          "name": "nftContract",
          "type": "address"
        },
        {
          "internalType": "uint256",
          "name": "tokenId",
          "type": "uint256"
        },
        {
          "internalType": "uint256",
          "name": "price",
          "type": "uint256"
        }
      ],
      "name": "createMarketItem",
      "outputs": [],
      "stateMutability": "payable",
      "type": "function",
      "payable": true
    },
    {
      "inputs": [
        {
          "internalType": "address",
          "name": "nftContract",
          "type": "address"
        },
        {
          "internalType": "uint256",
          "name": "itemId",
          "type": "uint256"
        }
      ],
      "name": "createMarketSale",
      "outputs": [],
      "stateMutability": "payable",
      "type": "function",
      "payable": true
    },
    {
      "inputs": [],
      "name": "fetchMarketItems",
      "outputs": [
        {
          "components": [
            {
              "internalType": "uint256",
              "name": "itemId",
              "type": "uint256"
            },
            {
              "internalType": "address",
              "name": "nftContract",
              "type": "address"
            },
            {
              "internalType": "uint256",
              "name": "tokenId",
              "type": "uint256"
            },
            {
              "internalType": "address payable",
              "name": "seller",
              "type": "address"
            },
            {
              "internalType": "address payable",
              "name": "owner",
              "type": "address"
            },
            {
              "internalType": "uint256",
              "name": "price",
              "type": "uint256"
            }
          ],
          "internalType": "struct NFTMarket.MarketItem[]",
          "name": "",
          "type": "tuple[]"
        }
      ],
      "stateMutability": "view",
      "type": "function",
      "constant": true
    },
    {
      "inputs": [],
      "name": "MyNfts",
      "outputs": [
        {
          "components": [
            {
              "internalType": "uint256",
              "name": "itemId",
              "type": "uint256"
            },
            {
              "internalType": "address",
              "name": "nftContract",
              "type": "address"
            },
            {
              "internalType": "uint256",
              "name": "tokenId",
              "type": "uint256"
            },
            {
              "internalType": "address payable",
              "name": "seller",
              "type": "address"
            },
            {
              "internalType": "address payable",
              "name": "owner",
              "type": "address"
            },
            {
              "internalType": "uint256",
              "name": "price",
              "type": "uint256"
            }
          ],
          "internalType": "struct NFTMarket.MarketItem[]",
          "name": "",
          "type": "tuple[]"
        }
      ],
      "stateMutability": "view",
      "type": "function",
      "constant": true
    }
  ],
  "bytecode": "0x6080604052678ac7230489e8000060045534801561001c57600080fd5b50600160008190555033600360006101000a81548173ffffffffffffffffffffffffffffffffffffffff021916908373ffffffffffffffffffffffffffffffffffffffff1602179055506113e3806100756000396000f3fe60806040526004361061004a5760003560e01c80630f08efe01461004f57806326c9b7841461007a57806358eb2df5146100a5578063ba0f1d9c146100c1578063c23b139e146100ea575b600080fd5b34801561005b57600080fd5b50610064610106565b6040516100719190611163565b60405180910390f35b34801561008657600080fd5b5061008f61040d565b60405161009c9190611163565b60405180910390f35b6100bf60048036038101906100ba9190610e92565b6107a0565b005b3480156100cd57600080fd5b506100e860048036038101906100e39190610ee1565b610aa2565b005b61010460048036038101906100ff9190610e56565b610b3c565b005b606060006101146001610d90565b905060006101226002610d90565b8261012d9190611285565b90506000808267ffffffffffffffff811115610172577f4e487b7100000000000000000000000000000000000000000000000000000000600052604160045260246000fd5b6040519080825280602002602001820160405280156101ab57816020015b610198610db4565b8152602001906001900390816101905790505b50905060005b8481101561040257600073ffffffffffffffffffffffffffffffffffffffff16600560006001846101e2919061122f565b815260200190815260200160002060040160009054906101000a900473ffffffffffffffffffffffffffffffffffffffff1673ffffffffffffffffffffffffffffffffffffffff1614156103ef57600060056000600184610243919061122f565b81526020019081526020016000206000015490506000600560008381526020019081526020016000209050806040518060c0016040529081600082015481526020016001820160009054906101000a900473ffffffffffffffffffffffffffffffffffffffff1673ffffffffffffffffffffffffffffffffffffffff1673ffffffffffffffffffffffffffffffffffffffff168152602001600282015481526020016003820160009054906101000a900473ffffffffffffffffffffffffffffffffffffffff1673ffffffffffffffffffffffffffffffffffffffff1673ffffffffffffffffffffffffffffffffffffffff1681526020016004820160009054906101000a900473ffffffffffffffffffffffffffffffffffffffff1673ffffffffffffffffffffffffffffffffffffffff1673ffffffffffffffffffffffffffffffffffffffff1681526020016005820154815250508486815181106103d3577f4e487b7100000000000000000000000000000000000000000000000000000000600052603260045260246000fd5b602002602001018190525084806103e990611307565b95505050505b80806103fa90611307565b9150506101b1565b508094505050505090565b6060600061041b6001610d90565b905060008060005b838110156104c3576005600060018361043c919061122f565b815260200190815260200160002060040160009054906101000a900473ffffffffffffffffffffffffffffffffffffffff1673ffffffffffffffffffffffffffffffffffffffff163373ffffffffffffffffffffffffffffffffffffffff1614156104b05782806104ac90611307565b9350505b80806104bb90611307565b915050610423565b5060008267ffffffffffffffff811115610506577f4e487b7100000000000000000000000000000000000000000000000000000000600052604160045260246000fd5b60405190808252806020026020018201604052801561053f57816020015b61052c610db4565b8152602001906001900390816105245790505b50905060005b84811015610795576005600060018361055e919061122f565b815260200190815260200160002060040160009054906101000a900473ffffffffffffffffffffffffffffffffffffffff1673ffffffffffffffffffffffffffffffffffffffff163373ffffffffffffffffffffffffffffffffffffffff161415610782576000600560006001846105d6919061122f565b81526020019081526020016000206000015490506000600560008381526020019081526020016000209050806040518060c0016040529081600082015481526020016001820160009054906101000a900473ffffffffffffffffffffffffffffffffffffffff1673ffffffffffffffffffffffffffffffffffffffff1673ffffffffffffffffffffffffffffffffffffffff168152602001600282015481526020016003820160009054906101000a900473ffffffffffffffffffffffffffffffffffffffff1673ffffffffffffffffffffffffffffffffffffffff1673ffffffffffffffffffffffffffffffffffffffff1681526020016004820160009054906101000a900473ffffffffffffffffffffffffffffffffffffffff1673ffffffffffffffffffffffffffffffffffffffff1673ffffffffffffffffffffffffffffffffffffffff168152602001600582015481525050848681518110610766577f4e487b7100000000000000000000000000000000000000000000000000000000600052603260045260246000fd5b6020026020010181905250848061077c90611307565b95505050505b808061078d90611307565b915050610545565b508094505050505090565b600260005414156107e6576040517f08c379a00000000000000000000000000000000000000000000000000000000081526004016107dd906111c5565b60405180910390fd5b600260008190555060008111610831576040517f08c379a000000000000000000000000000000000000000000000000000000000815260040161082890611185565b60405180910390fd5b600454341461083f57600080fd5b6108496001610d9e565b60006108556001610d90565b90506040518060c001604052808281526020018573ffffffffffffffffffffffffffffffffffffffff1681526020018481526020013373ffffffffffffffffffffffffffffffffffffffff168152602001600073ffffffffffffffffffffffffffffffffffffffff16815260200183815250600560008381526020019081526020016000206000820151816000015560208201518160010160006101000a81548173ffffffffffffffffffffffffffffffffffffffff021916908373ffffffffffffffffffffffffffffffffffffffff1602179055506040820151816002015560608201518160030160006101000a81548173ffffffffffffffffffffffffffffffffffffffff021916908373ffffffffffffffffffffffffffffffffffffffff16021790555060808201518160040160006101000a81548173ffffffffffffffffffffffffffffffffffffffff021916908373ffffffffffffffffffffffffffffffffffffffff16021790555060a082015181600501559050508373ffffffffffffffffffffffffffffffffffffffff166323b872dd3330866040518463ffffffff1660e01b8152600401610a0d9392919061112c565b600060405180830381600087803b158015610a2757600080fd5b505af1158015610a3b573d6000803e3d6000fd5b50505050828473ffffffffffffffffffffffffffffffffffffffff16827f2bf8b9d099cd542bfcbd540022c5cdfca1f61db6d70b7cf3021bcf93cb91e2e733600087604051610a8c9392919061112c565b60405180910390a4506001600081905550505050565b600360009054906101000a900473ffffffffffffffffffffffffffffffffffffffff1673ffffffffffffffffffffffffffffffffffffffff163373ffffffffffffffffffffffffffffffffffffffff1614610b32576040517f08c379a0000000000000000000000000000000000000000000000000000000008152600401610b29906111a5565b60405180910390fd5b8060048190555050565b60026000541415610b82576040517f08c379a0000000000000000000000000000000000000000000000000000000008152600401610b79906111c5565b60405180910390fd5b6002600081905550600060056000838152602001908152602001600020600501549050600060056000848152602001908152602001600020600201549050813414610bcc57600080fd5b6005600084815260200190815260200160002060030160009054906101000a900473ffffffffffffffffffffffffffffffffffffffff1673ffffffffffffffffffffffffffffffffffffffff166108fc349081150290604051600060405180830381858888f19350505050158015610c48573d6000803e3d6000fd5b508373ffffffffffffffffffffffffffffffffffffffff166323b872dd3033846040518463ffffffff1660e01b8152600401610c869392919061112c565b600060405180830381600087803b158015610ca057600080fd5b505af1158015610cb4573d6000803e3d6000fd5b50505050336005600085815260200190815260200160002060040160006101000a81548173ffffffffffffffffffffffffffffffffffffffff021916908373ffffffffffffffffffffffffffffffffffffffff160217905550610d176002610d9e565b600360009054906101000a900473ffffffffffffffffffffffffffffffffffffffff1673ffffffffffffffffffffffffffffffffffffffff166108fc6004549081150290604051600060405180830381858888f19350505050158015610d81573d6000803e3d6000fd5b50505060016000819055505050565b600081600001549050919050565b6001816000016000828254019250508190555050565b6040518060c0016040528060008152602001600073ffffffffffffffffffffffffffffffffffffffff16815260200160008152602001600073ffffffffffffffffffffffffffffffffffffffff168152602001600073ffffffffffffffffffffffffffffffffffffffff168152602001600081525090565b600081359050610e3b8161137f565b92915050565b600081359050610e5081611396565b92915050565b60008060408385031215610e6957600080fd5b6000610e7785828601610e2c565b9250506020610e8885828601610e41565b9150509250929050565b600080600060608486031215610ea757600080fd5b6000610eb586828701610e2c565b9350506020610ec686828701610e41565b9250506040610ed786828701610e41565b9150509250925092565b600060208284031215610ef357600080fd5b6000610f0184828501610e41565b91505092915050565b6000610f168383611093565b60c08301905092915050565b610f2b816112cb565b82525050565b610f3a816112b9565b82525050565b610f49816112b9565b82525050565b6000610f5a826111f5565b610f64818561120d565b9350610f6f836111e5565b8060005b83811015610fa0578151610f878882610f0a565b9750610f9283611200565b925050600181019050610f73565b5085935050505092915050565b6000610fba601c8361121e565b91507f7072696365206d757374206265206174206c65617374203120776569000000006000830152602082019050919050565b6000610ffa60238361121e565b91507f6f6e6c79206f776e65722063616e206368616e6765206c697374696e6720707260008301527f69636500000000000000000000000000000000000000000000000000000000006020830152604082019050919050565b6000611060601f8361121e565b91507f5265656e7472616e637947756172643a207265656e7472616e742063616c6c006000830152602082019050919050565b60c0820160008201516110a9600085018261110e565b5060208201516110bc6020850182610f31565b5060408201516110cf604085018261110e565b5060608201516110e26060850182610f22565b5060808201516110f56080850182610f22565b5060a082015161110860a085018261110e565b50505050565b611117816112fd565b82525050565b611126816112fd565b82525050565b60006060820190506111416000830186610f40565b61114e6020830185610f40565b61115b604083018461111d565b949350505050565b6000602082019050818103600083015261117d8184610f4f565b905092915050565b6000602082019050818103600083015261119e81610fad565b9050919050565b600060208201905081810360008301526111be81610fed565b9050919050565b600060208201905081810360008301526111de81611053565b9050919050565b6000819050602082019050919050565b600081519050919050565b6000602082019050919050565b600082825260208201905092915050565b600082825260208201905092915050565b600061123a826112fd565b9150611245836112fd565b9250827fffffffffffffffffffffffffffffffffffffffffffffffffffffffffffffffff0382111561127a57611279611350565b5b828201905092915050565b6000611290826112fd565b915061129b836112fd565b9250828210156112ae576112ad611350565b5b828203905092915050565b60006112c4826112dd565b9050919050565b60006112d6826112dd565b9050919050565b600073ffffffffffffffffffffffffffffffffffffffff82169050919050565b6000819050919050565b6000611312826112fd565b91507fffffffffffffffffffffffffffffffffffffffffffffffffffffffffffffffff82141561134557611344611350565b5b600182019050919050565b7f4e487b7100000000000000000000000000000000000000000000000000000000600052601160045260246000fd5b611388816112b9565b811461139357600080fd5b50565b61139f816112fd565b81146113aa57600080fd5b5056fea264697066735822122060a396115802580a63b4fae3482a2e35e18b124679fa65b40230cb9827f5484764736f6c63430008000033",
  "immutableReferences": {},
  "source": "// SPDX-License-Identifier: MIT\n\npragma solidity >= 0.4.0  < 0.9.0;\n\n\nimport \"@openzeppelin/contracts/token/ERC721/extensions/ERC721URIStorage.sol\";\nimport \"@openzeppelin/contracts/utils/Counters.sol\";\nimport \"@openzeppelin/contracts/security/ReentrancyGuard.sol\";\nimport \"@openzeppelin/contracts/token/ERC721/ERC721.sol\";\n//import \"hardhat/console.sol\";\n\ncontract NFTMarket is ReentrancyGuard{\n    using Counters for Counters.Counter;\n    Counters.Counter private _itemIds;\n    Counters.Counter private _itemSold;\n\n    address payable owner;\n    uint256 listingPrice = 10 ether;\n\n    constructor(){\n        owner = payable(msg.sender);\n    }\n\n    function changeListingPrice(uint256 _price) public{\n        require(msg.sender == owner,\"only owner can change listing price\");\n        listingPrice = _price;\n    }\n\n    struct MarketItem{\n        uint itemId;\n        address nftContract;\n        uint256 tokenId;\n        address payable seller;\n        address payable owner;\n        uint256 price;\n    }\n\n    //item id => struct MarketItem\n    mapping(uint256=>MarketItem) private idToMarketItem;\n\n    event MarketItemcreated(\n        uint indexed itemId,\n        address indexed nftContract,\n        uint256 indexed tokenId,\n        address seller,\n        address owner,\n        uint256 price\n    );\n\n    //\n    function createMarketItem(\n        address nftContract,\n        uint256 tokenId,\n        uint256 price\n    ) public payable nonReentrant{\n        require(price > 0,\"price must be at least 1 wei\");\n        require(msg.value == listingPrice);\n\n        _itemIds.increment();\n        uint256 itemId = _itemIds.current();\n\n        idToMarketItem[itemId] = MarketItem(\n            itemId,\n            nftContract,\n            tokenId,\n            payable(msg.sender),\n            payable(address(0)),//\n            price\n        );\n\n        //NFT\n        IERC721(nftContract).transferFrom(msg.sender,address(this),tokenId);\n\n        emit MarketItemcreated(\n            itemId,\n            nftContract,\n            tokenId,\n            msg.sender,\n            address(0),\n            price\n        );\n    }\n\n    /** @dev (msg.sender)\n    * (1)valuetransfer(2)tokenmsg.sender\n    *(3)itemowner()    \n    */\n    function createMarketSale(\n        address nftContract,\n        uint256 itemId\n    ) public payable nonReentrant{\n        uint256 price = idToMarketItem[itemId].price;\n        uint256 tokenId = idToMarketItem[itemId].tokenId;\n\n        //\n        require(msg.value == price);\n\n        idToMarketItem[itemId].seller.transfer(msg.value);\n        IERC721(nftContract).transferFrom(address(this),msg.sender,tokenId);\n        idToMarketItem[itemId].owner = payable(msg.sender);\n        _itemSold.increment();\n        owner.transfer(listingPrice);\n\n    }\n\n    //fetch\n    function fetchMarketItems() public view returns(MarketItem[] memory){\n        uint itemCount = _itemIds.current();\n        uint unsoldItemCount = itemCount - _itemSold.current();\n        uint currentIndex = 0;\n\n        MarketItem[] memory items = new MarketItem[](unsoldItemCount);\n        for (uint i = 0; i < itemCount;i++){\n            //()\n            if(idToMarketItem[i+1].owner == address(0)){\n                uint currentId = idToMarketItem[i+1].itemId;\n                MarketItem storage currentItem = idToMarketItem[currentId];\n                items[currentIndex] = currentItem;\n                currentIndex++;\n            }\n        }\n        return items;\n\n    }\n\n    //fetch my nft\n    function MyNfts() public view returns(MarketItem[] memory){\n        uint itemCount = _itemIds.current();\n        uint itemCurrent = 0;\n        uint currentIndex = 0;\n\n        for(uint i = 0;i < itemCount;i++){\n            if(msg.sender == idToMarketItem[i+1].owner){\n                itemCurrent++;\n            }\n        }\n        MarketItem[] memory items = new MarketItem[](itemCurrent);\n        for (uint i = 0;i < itemCount;i++){\n            if(msg.sender == idToMarketItem[i+1].owner){\n                uint currentId = idToMarketItem[i+1].itemId;\n                MarketItem storage currentItem = idToMarketItem[currentId];\n                items[currentIndex] = currentItem;\n                currentIndex++;\n            }\n        }\n        return items;\n    }\n}",
  "sourcePath": "/Users/haru/smartContract/nftMarketPlace/contracts/NFTMarket.sol",
  "compiler": {
    "name": "solc",
    "version": "0.8.0+commit.c7dfd78e.Emscripten.clang"
  },
  "schemaVersion": "3.4.3",
  "updatedAt": "2021-09-08T05:03:21.395Z",
  "networkType": "ethereum",
  "devdoc": {
    "kind": "dev",
    "methods": {
      "createMarketSale(address,uint256)": {
        "details": "(msg.sender) (1)valuetransfer(2)tokenmsg.sender (3)itemowner()    "
      }
    },
    "version": 1
  },
  "userdoc": {
    "kind": "user",
    "methods": {},
    "version": 1
  }
}